:060000000A128A11FC2F18
:100ED200831603138701831203138701FF308316DE
:100EE200031388008312031388010800700371043E
:100EF200031D7C2F7D2F8A2FCF3083160313920080
:100F02000730831203139200673095003C3097003C
:100F1200B62F023070067104031D902F912F9E2F61
:100F22005830831603139200073083120313920082
:100F32003E3095001C309700B62F033070067104C6
:100F4200031DA42FA52FB22FF9308316031392008D
:100F52000530831203139200FC3095003C30970059
:100F6200B62F831203139501970108000A128A1102
:100F720069270A128A11831203130808F20020302B
:100F82007206031DC52FC62FD02F0130F00000308E
:100F9200F1000A128A1177270A128A11BC2F4030F7
:100FA2007206031DD52FD62FE02F0230F00000303D
:100FB200F1000A128A1177270A128A11BC2F803097
:100FC2007206031DE52FE62FF02F0330F0000030EC
:100FD200F1000A128A1177270A128A11BC2F0030F7
:100FE200F000F1000A128A1177270A128A11BC2F27
:0E0FF2000A128A11002883010A128A11B72FF1
:00000001FF
